:020000001A28BC
:10000800A000030EA1000B1C0B28D320E6200B191F
:10001800B520031383120C1BBC20031383128C1A04
:10002800B120210E8300A00E200E090003138316B1
:100038000F308500031783160F30880003138316CB
:10004800FF3086000317831689010313831688017E
:10005800031383160430810003138316FF309500C1
:100068000313831697010313831281309F00031330
:1000780083169F01031383162630980003138312F7
:1000880090309800031383161930990003138316D0
:100098009A010313831278308B0003138316FF3001
:1000A80096000313831660308C00031383128801B3
:1000B800031383128101031383129F140313831202
:1000C8008B17831203133030B400F030B500B80139
:1000D800B901C001C801C901CA01CB01D00183120D
:1000E80003130A30A9204830A9204530A9204C30F4
:1000F800A9204C30A9204F30A9202030A920573002
:10010800A9204F30A9205230A9204C30A9204430D2
:10011800A9203808031DD0005008033C03195D21AD
:1001280050080A3C03197A215008083C0319862113
:100138005008053C0319982150080D3C0319A421C7
:100148005008093C0319B621732803138312990038
:1001580003138316981CAE280800031383128C120D
:1001680008000313831200308100A80A0B1108004D
:10017800340884001E088000B40A3408343C03198B
:10018800C628C8283030B40034181F15341C1F1175
:10019800B4189F15B41C9F110C139F140800061E59
:1001A8004014061A4010861EC014861AC010061F76
:1001B8004015061B4011861FC015861BC0118B10E9
:1001C8000B10080083120313B801B901081288162E
:1001D800081788170130B800172139180F29081691
:1001E8008812081788170230B800172139180F2904
:1001F80008168816081388170430B800172139180C
:100208000F2908168816081788130830B800172110
:1002180039180F29B8012C210812881208138813DD
:100228008B100B100800061C2029861C2329061D8C
:100238002629861D29290800381639140800B816F9
:1002480039140800381739140800B8173914080089
:10025800831203130301B81F3229003E381F3529C2
:10026800013EB81E3829023E381E3B29033EB81D00
:100278003E29003E381D4129043EB81C4429083E49
:10028800381C47290C3EB80008007A21401C49292F
:10029800C801C90108008621C01C4F2908009821FF
:1002A800401D5329CA01CB010800A421C01D5929AA
:1002B800080030083102350503196A290318662930
:1002C800031C68297A216B2986216B29932132081E
:1002D800330235050319782903187429031C762974
:1002E80098217929A4217929B12108000810401CF6
:1002F8008814B6218810B62140188529C80A031821
:10030800C90A08000814C01C8814B6218810B62130
:10031800C0189229C8080319C903C803080008109F
:100328008810B621B62108000811401D8815B6218D
:100338008811B6214019A329CA0A0318CB0A080054
:100348000815C01D8815B6218811B621C019B02915
:10035800CA080319CB03CA03080008118811B6217B
:10036800B62108002808A900280829020319B82975
:0203780008007B
:04400E00F420FF3F5C
:00000001FF
