:020000001828BE
:10000800A000030EA100031383120B189B200313F7
:1000180083120B197D20031383120C1B8420210EDD
:100028008300A00E200E0900031383160F308500ED
:10003800031783160F30880003138316FF308600DA
:100048000317831689010313831687010313831685
:100058008801031383160430810003138316FF30CD
:10006800950003138312F8308B0003138316FF30B7
:1000780096000313831640308C0003138316003058
:1000880097000313831281309F00031383160030F7
:100098009F00031383128101031383129F14031318
:1000A800831287010313831288013030B400F030C3
:1000B800B500B801B901C001D00111217E21172175
:1000C8007E21AC30CC004221CC0B67281B217E213D
:1000D80021217E21D030CC006021CC0B70288312E6
:1000E80003133808031DD0005008013C03192521CB
:1000F80073280313831200308100A80A0B1108002B
:10010800340884001E088000B40A3408343C0319FB
:100118008E2890283030B40034181F15341C1F1155
:10012800B4189F15B41C9F110C139F140800061EC9
:100138004014061A4010861EC014861AC010061FE6
:100148004015061B4011861FC015861BC0118B1059
:100158000B10080083120313B801B901081288169E
:10016800081788170130B800DF203918D728081673
:100178008812081788170230B800DF203918D728E6
:1001880008168816081388170430B800DF203918B5
:10019800D72808168816081788130830B800DF20F3
:1001A8003918D728B801F4200812881208138813C0
:1001B8008B100B100800061CE828861CEB28061D6F
:1001C800EE28861DF1280800381639140800B816DC
:1001D80039140800381739140800B81739140800FA
:1001E800831203130301B81FFA28003E381FFD28A5
:1001F800013EB81E0029023E381E0329033EB81DE1
:100208000629003E381D0929043EB81C0C29083E61
:10021800381C0F290C3EB80008004221401C112947
:10022800C801C90108004E21C01C17290800602117
:10023800401D1B29CA01CB0108006C21C01D2129C2
:1002480008003008310235050319322903182E2910
:10025800031C3029422133294E2133295B213208DE
:10026800330235050319402903183C29031C3E298C
:10027800602141296C214129792108000810401C7E
:1002880088147E2188107E2140184D29C80A031839
:10029800C90A08000814C01C88147E2188107E2111
:1002A800C0185A29C8080319C903C8030800081048
:1002B80088107E217E2108000811401D88157E21A6
:1002C80088117E2140196B29CA0A0318CB0A080035
:1002D8000815C01D88157E2188117E21C01978292E
:1002E800CA080319CB03CA030800081188117E2124
:1002F8007E2108002808A900280829020319802956
:020308000800EB
:04400E00F420FF3F5C
:00000001FF
