:020000001A28BC
:10000800A000030EA100031383120B1C0D28B120BE
:10001800C420031383120B199320031383120C1BA0
:100028009A20210E8300A00E200E090003138316C8
:100038000F308500031783160F30880003138316CB
:10004800FF3086000317831689010313831687017F
:1000580003138316880103138316043081000313E6
:100068008316FF30950003138312F8308B000313B7
:100078008316FF3096000313831640308C00031359
:100088008316003097000313831281309F000313F7
:10009800831600309F000313831281010313831218
:1000A8009F140313831287010313831288013030CE
:1000B800B400F030B500B801B901C001D001272162
:1000C80094212D219421AC30CC005821CC0B6928E7
:1000D8003121942137219421D030CC007621CC0BCA
:1000E8007228831203133808031DD0005008013CFE
:1000F80003193B215008093C031958215008083CB2
:100108000319642150080C3C0319762150080D3C52
:100118000319822150080F3C0319942175280313F1
:10012800831200308100A80A0B11080034088400EB
:100138001E088000B40A3408343C0319A428A628F1
:100148003030B40034181F15341C1F11B4189F1513
:10015800B41C9F110C139F140800061E4014061AA5
:100168004010861EC014861AC010061F4015061BB4
:100178004011861FC015861BC0118B100B1008007C
:1001880083120313B801B9010812881608178817D3
:100198000130B800F5203918ED280816881208171C
:1001A80088170230B800F5203918ED280816881687
:1001B800081388170430B800F5203918ED280816F8
:1001C8008816081788130830B800F5203918ED2864
:1001D800B8010A2108128812081388138B100B1013
:1001E8000800061CFE28861C0129061D0429861DF8
:1001F80007290800381639140800B81639140800F9
:10020800381739140800B817391408008312031373
:100218000301B81F1029003E381F1329013EB81EDC
:100228001629023E381E1929033EB81D1C29003E16
:10023800381D1F29043EB81C2229083E381C2529D0
:100248000C3EB80008005821401C2729C801C901E4
:1002580008006421C01C2D2908007621401D312981
:10026800CA01CB0108008221C01D372908003008C7
:10027800310235050319482903184429031C462966
:100288005821492964214929712132083302350549
:100298000319562903185229031C54297621572972
:1002A800822157298F2108000810401C88149421A6
:1002B8008810942140186329C80A0318C90A08003D
:1002C8000814C01C8814942188109421C01870291F
:1002D800C8080319C903C803080008108810942126
:1002E800942108000811401D881594218811942133
:1002F80040198129CA0A0318CB0A08000815C01D2D
:100308008815942188119421C0198E29CA080319C7
:10031800CB03CA030800081188119421942108000E
:0E0328002808A90028082902031996290800B0
:04400E00F420FF3F5C
:00000001FF
