:020000000E28C8
:10000800A000030EA1000B197A20210E8300A00E78
:10001800200E0900031383160F308500031783167B
:100028000F30880003138316FF30860003178316EA
:1000380000308908031383160030870003138316E2
:100048000730810003138316FF30950003138312D2
:10005800A0308B0003138316003096000313831619
:10006800003097000313831281309F000313831617
:1000780000309F00031383128101031383120030A1
:10008800870003138312F830A700031383121F118C
:100098009F119F149F184E281E0803138312A30054
:1000A800031383121F159F119F149F1859281E08A8
:1000B80003138312A400031383121F119F159F14A7
:1000C8009F1864281E0803138312A50003138312C4
:1000D8001F159F159F149F186F281E08031383125E
:1000E800A6008312031380209A2049280313831241
:1000F8008101A20A0B11080023082402270503190D
:100108009528031C892803188F2807148714B420FE
:100118008710B420080007108714B4208710B42073
:10012800080007108710B420B4200800250826020C
:1001380027050319AF28031CA3280318A9280715A6
:100148008715B4208711B420080007118715B4203B
:100158008711B420080007118711B420B4200800C3
:0E0168002208A900220829020319B62808005F
:04400E00F120FF3F5F
:00000001FF
