:020000001A28BC
:10000800A000030EA100031383120B1C0D28BD20B2
:10001800D020031383120B199F20031383120C1B88
:10002800A620210E8300A00E200E090003138316BC
:100038000F308500031783160F30880003138316CB
:10004800FF30860003178316890103138316C03017
:100058008700031383168801031383160430810075
:1000680003138316FF3095000313831697010313B8
:10007800831281309F00031383169F010313831695
:1000880022309800031383129030980003138316CC
:10009800CF3099000313831278308B000313831633
:1000A800FF3096000313831660308C00031383120D
:1000B8008801031383128101031383129F1403130E
:1000C80083128B17831203133030B400F030B5005D
:1000D800B801B901C001D00183120313483096203A
:1000E8004F3096204C309620413096203808031D1A
:1000F800D0005008033C0319472150080A3C031953
:1001080064215008083C031970215008053C031964
:10011800822150080D3C03198E215008093C03190F
:10012800A0217028031383129900031383169818CB
:100138009B28080008000313831200308100A80AD6
:100148000B110800340884001E088000B40A340823
:10015800343C0319B028B2283030B40034181F15C5
:10016800341C1F11B4189F15B41C9F110C139F1435
:100178000800061E4014061A4010861EC014861A6F
:10018800C010061F4015061B4011861FC015861B90
:10019800C0118B100B10080083120313B801B901AA
:1001A80008128816081788170130B8000121391875
:1001B800F92808168812081788170230B800012194
:1001C8003918F92808168816081388170430B80053
:1001D80001213918F92808168816081788130830D5
:1001E800B80001213918F928B80116210812881217
:1001F800081388138B100B100800061C0A29861C8C
:100208000D29061D1029861D1329080038163914D2
:100218000800B81639140800381739140800B81738
:1002280039140800831203130301B81F1C29003E68
:10023800381F1F29013EB81E2229023E381E2529D3
:10024800033EB81D2829003E381D2B29043EB81C42
:100258002E29083E381C31290C3EB80008006421BC
:10026800401C3329C801C90108007021C01C392964
:1002780008008221401D3D29CA01CB0108008E21BA
:10028800C01D4329080030083102350503195429D7
:1002980003185029031C5229642155297021552916
:1002A8007D213208330235050319622903185E29B6
:1002B800031C6029822163298E2163299B21080060
:1002C8000810401C8814A0218810A02140186F290C
:1002D800C80A0318C90A08000814C01C8814A021F9
:1002E8008810A021C0187C29C8080319C903C803AD
:1002F800080008108810A021A02108000811401D3E
:100308008815A0218811A02140198D29CA0A03182F
:10031800CB0A08000815C01D8815A0218811A02146
:10032800C0199A29CA080319CB03CA03080008117F
:100338008811A021A02108002808A900280829025E
:060348000319A2290800C0
:04400E00F420FF3F5C
:00000001FF
