:020000001828BE
:10000800A000030EA100031383120B1895200313FD
:1000180083120B197720031383120C1B7E20210EE9
:100028008300A00E200E0900031383160F308500ED
:10003800031783160F30880003138316FF308600DA
:100048000317831689010313831687010313831685
:100058008801031383160430810003138316FF30CD
:10006800950003138312F8308B0003138316FF30B7
:1000780096000313831640308C0003138316003058
:1000880097000313831281309F00031383160030F7
:100098009F00031383128101031383129F14031318
:1000A800831287010313831288013030B400F030C3
:1000B800B500B801B901C001172179211D217921A5
:1000C800AC30CC003421CC0B6628212179212721A2
:1000D8007921D030CC005B21CC0B6F28831203131D
:1000E8002B21522172280313831200308100A80AA1
:1000F8000B110800340884001E088000B40A340874
:10010800343C031988288A283030B40034181F1565
:10011800341C1F11B4189F15B41C9F110C139F1485
:100128000800061E4016061A4012861EC016861AB9
:10013800C012061F4017061B4013861FC017861BD8
:10014800C013401A0716401E0712C01A8716C01E91
:100158008712401B0717401F0713C01B8717C01FB4
:1001680087138B100B10080083120313B801B90111
:1001780008128816081788170130B800E5203918C2
:10018800E12808168812081788170230B800E520F9
:100198003918E12808168816081388170430B8009B
:1001A800E5203918E128081688160817881308303A
:1001B800B800E5203918E128B80188018B100B1028
:1001C8000800061CEE28861CF128061DF428861D4A
:1001D800F7280800381639140800B816391408002A
:1001E800381739140800B817391408008312031394
:1001F8000301B81F0029003E381F0329013EB81E1D
:100208000629023E381E0929033EB81D0C29003E66
:10021800381D0F29043EB81C1229083E381C152920
:100228000C3EB80008003421401E1729C801C90136
:1002380008004021C01E1D2908005B21401F2129FC
:10024800CA01CB0108006721C01F27290800300810
:100258003102350503194D2903183429031C402997
:100268000710401E8714792187107921401A3F29E9
:10027800C80A0318C90A08000714C01E8714792180
:1002880087107921C01A4C29C8080319C903C80363
:1002980008000710871079217921080032083302F5
:1002A80035050319742903185B29031C67290711ED
:1002B800401F8715792187117921401B6629CA0AB1
:1002C8000318CB0A08000715C01F87157921871165
:1002D8007921C01B7329CA080319CB03CA03080074
:1002E800071187117921792108002808A900280811
:0802F800290203197B2908000B
:04400E00F420FF3F5C
:00000001FF
