:020000001A28BC
:10000800A000030EA1000B1C0B28D420E7200B191D
:10001800B220031383120C1BB920031383128C1A0A
:10002800AD20210E8300A00E200E090003138316B5
:100038000F308500031783160F30880003138316CB
:10004800FF3086000317831689010313831688017E
:10005800031383160330810003138316FF309500C2
:100068000313831697010313831241309F00031370
:1000780083169F01031383162630980003138312F7
:1000880090309800031383161930990003138316D0
:100098009A010313831278308B0003138316FF3001
:1000A80096000313831660308C00031383128801B3
:1000B800031383128101031383129F140313831202
:1000C8008B17831203133030B400F030B500B80139
:1000D800B901C001C801C901CA01CB01D0014E2133
:1000E800C121AC30CC007B21CC0B77285821C12111
:1000F800D030CC009E21CC0B7E28831203135808E5
:10010800031DD000D8013808031DD0005008033C57
:1001180003195E2150080A3C03197B215008083C4A
:1001280003198B215008053C03199E2150080D3CEA
:100138000319AE215008093C0319C12181288B13EA
:1001480003138312990003138316981CA9288B178D
:100158000800031383121A08D80008000313831237
:1001680000308100A80A0B110800340884001E081A
:100178008000B40A3408343C0319C328C528303039
:10018800B40034181F15341C1F11B4189F15B41C63
:100198009F11031383120C13031383129F14080077
:1001A800061E4014061A4010861EC014861AC01077
:1001B800061F4015061B4011861FC015861BC0115F
:1001C8008B100B10080083120313B801B901081231
:1001D8008816081788170130B8001821391810290F
:1001E80008168812081788170230B800182139181D
:1001F800102908168816081388170430B800182123
:100208003918102908168816081788130830B800F6
:10021800182139181029B8012D210812881208133D
:1002280088138B100B100800061C2129861C242912
:10023800061D2729861D2A290800381639140800A2
:10024800B81639140800381739140800B8173914C3
:100258000800831203130301B81F3329003E381F17
:100268003629013EB81E3929023E381E3C29033E74
:10027800B81D3F29003E381D4229043EB81C4529B7
:10028800083E381C48290C3EB80008007B21401C59
:100298004A2908008B21C01C4E29C801C901080041
:1002A8009E21401D54290800AE21C01D5829CA01AD
:1002B800CB01080030083102350503196B290318F2
:1002C8006729031C69297B216C298B216C299921B9
:1002D8003208330235050319792903187529031CD7
:1002E80077299E217A29AE217A29BC210800081095
:1002F800401C8814C1218810C12140188A29013066
:10030800C807031C89290130C907C8210800081437
:10031800C01C8814C1218810C121C0189829480818
:100328000319C903C803C821080008108810C1218F
:10033800C12108000811401D8815C1218811C1215B
:100348004019AD290130CA07031CAC290130CB077D
:10035800C82108000815C01D8815C1218811C121B0
:10036800C019BB294A080319CB03CA03C8210800CE
:1003780008118811C121C12108002808A9002808EE
:1003880029020319C32908000A30A3204908F721C4
:10039800A3204908F421A3204808F721A3204808EE
:1003A800F421A3204B08F721A3204B08F421A32014
:1003B8004A08F721A3204A08F421A320080082074D
:1003C80030343134323433343434353436343734E9
:1003D800383439344134423443344434453446346F
:1003E8000F39E3210800A200220E0F39E32108008B
:04400E00F420FF3F5C
:00000001FF
