:020000002B28AB
:10000800A000030EA1000B1C0B28E320F6200B19FF
:10001800C120031383120C1BC820031383128C1AEC
:10002800BC20210E8300A00E200E09008207303468
:100038003134323433343434353436343734383474
:100048003934413442344334443445344634031358
:1000580083160F308500031783160F3088000313AB
:100068008316FF308600031783168901031383164E
:100078008801031383160430810003138316FF30AD
:1000880095000313831697010313831281309F0091
:10009800031383169F010313831626309800031356
:1000A80083129030980003138316193099000313B4
:1000B80083169A010313831278308B000313831677
:1000C800FF3096000313831660308C0003138312ED
:1000D8008801031383128101031383129F140313EE
:1000E80083128B1706223030B400F030B500B80107
:1000F800B901C001C801C901CA01CB01D001592108
:10010800D821AC30CC008621CC0B87286321D8219C
:10011800D030CC00AF21CC0B8E285808031DD0005E
:10012800D8013808031DD0005008033C0319692181
:1001380050080A3C031986215008083C03199821E5
:100148005008053C0319AF2150080D3C0319C12183
:100158005008093C0319D82191288B1303138312E3
:10016800990003138316981CB7288B1706220800DA
:10017800031383121A08D8000800031383120030EF
:100188008100A80A0B110800340884001E088000AA
:10019800B40A3408343C0319D228D4283030B400C7
:1001A80034181F15341C1F11B4189F15B41C9F1147
:1001B800031383120C13031383129F140800061EE3
:1001C8004014061A4010861EC014861AC010061F56
:1001D8004015061B4011861FC015861BC0118B10C9
:1001E8000B100800B801B9010812881608178817FB
:1001F8000130B800252139181D290816881208175A
:1002080088170230B800252139181D2908168816C4
:10021800081388170430B800252139181D29081635
:100228008816081788130830B800252139181D29A1
:10023800B8013A2108128812081388138B100B1082
:100248000800061C2E29861C3129061D3429861D06
:1002580037290800381639140800B8163914080068
:10026800381739140800B817391408000301B81FE3
:100278003E29003E381F4129013EB81E4429023E4E
:10028800381E4729033EB81D4A29003E381D4D290E
:10029800043EB81C5029083E381C53290C3EB800AF
:1002A80008008621401C552908009821C01C59299E
:1002B800C801C9010800AF21401D5F290800C121FC
:1002C800C01D6329CA01CB01080030083102350579
:1002D8000319762903187229031C742986217729A2
:1002E80098217729AA213208330235050319842970
:1002F80003188029031C8229AF218529C12185295A
:10030800D32108000810401C8814D8218810D8214F
:10031800401897294808013EC800031C9629490837
:10032800013EC900DF2108000814C01C8814D82128
:100338008810D821C018A9294808013CC800031C06
:10034800A8294908013EC900DF21080008108810C3
:10035800D821D82108000811401D8815D8218811F6
:10036800D8214019C0294A08013ECA00031CBF29E8
:100378004B08013ECB00DF2108000815C01D881579
:10038800D8218811D821C019D2294A08013CCA00AD
:10039800031CD1294B08013ECB00DF2108000811BE
:1003A8008811D821D82108002808A900280829027E
:1003B8000319DA2908000D30B1200A30B1204908A4
:1003C8000122B1204908FE21B12048080122B120AC
:1003D8004808FE21B1202030B1204B080122B1206D
:1003E8004B08FE21B1204A080122B1204A08FE210B
:1003F800B12008000F391A200800A200220E0F3978
:0A0408001A200800831203130800F5
:04400E00F420FF3F5C
:00000001FF
