:020000001828BE
:10000800A000030EA100031383120B18862003130C
:1000180083120B196820031383120C1B6F20210E07
:100028008300A00E200E0900031383160F308500ED
:10003800031783160F308800031383160F308600CA
:1000480003178316003089080313831600308700CE
:1000580003138316003088000313831604308100CD
:10006800031383160F30950003138312F8308B00A7
:10007800031383160F3096000313831640308C0049
:1000880003138316003097000313831281309F00F7
:100098000313831600309F0003138312003081007E
:1000A800031383129F140313831200308700031372
:1000B8008312003088004030C400F830C500831235
:1000C8000313E62000216328031383120030810004
:1000D800B00A0B110800440884001E088000C40AF6
:1000E8004408443C031979287B284030C40044184C
:1000F8001F15441C1F11C4189F15C41C9F110C13F5
:100108009F140800831203138717D001D101081226
:100118008816081788170130D000B4205118B02865
:1001280008168812081788170230D000B420511812
:10013800B02808168816081388170430D000B42091
:100148005118B02808168816081788130830D000E8
:10015800B4205118B028D00188018B100B1008006A
:10016800061CBD28861CC028061DC328861DC62857
:100178000800501651140800D016511408005017E2
:1001880051140800D01751140800831203130301F7
:10019800D01FCF28003E501FD228013ED01ED528A0
:1001A800023E501ED828033ED01DDB28003E501DBD
:1001B800DE28043ED01CE128083E501CE4280C3EF2
:1001C800D00008004008410245050319FB28031C1C
:1001D800EF280318F528071487141A2187101A2105
:1001E8000800071087141A2187101A210800071021
:1001F80087101A211A2108004208430245050319ED
:100208001529031C092903180F29071587151A2111
:1002180087111A210800071187151A2187111A2139
:100228000800071187111A211A2108003008B100A7
:0A0238003008310203191C290800E8
:04400E00F120FF3F5F
:00000001FF
