:020000001828BE
:10000800A000030EA100031383120B188920031309
:1000180083120B196B20031383120C1B7220210E01
:100028008300A00E200E0900031383160F308500ED
:10003800031783160F30880003138316FF308600DA
:1000480003178316003089080313831600308700CE
:1000580003138316003088000313831604308100CD
:1000680003138316FF30950003138316003097009F
:100078000313831281309F000313831600309F00FF
:10008800031383120030810003138316FF30960098
:100098000313831640308C0003138312F8308B004F
:1000A800031383129F140313831200308700031372
:1000B8008312003088004030C400F830C500D001F9
:1000C800D101E001831203130B21272166280313B2
:1000D800831200308100B00A0B1108004408840024
:1000E8001E088000C40A4408443C03197C287E2862
:1000F8004030C40044181F15441C1F11C4189F1514
:10010800C41C9F110C139F140800061E6016061AC3
:100118006012861EE016861AE012061F6017061B7C
:100128006013861FE017861BE013601A0716601E0F
:100138000712E01A8716E01E8712601B0717601F58
:100148000713E01B8717E01F87138B100B1008009D
:1001580083120313D001D1010812881608178817D3
:100168000130D000D9205118D52808168812081750
:1001780088170230D000D9205118D52808168816BB
:10018800081388170430D000D9205118D52808162C
:100198008816081788130830D000D9205118D52898
:1001A800D00188018B100B100800061CE228861C61
:1001B800E528061DE828861DEB280800501651146E
:1001C8000800D01651140800501751140800D01711
:1001D80051140800831203130301D01FF428003EB2
:1001E800501FF728013ED01EFA28023E501EFD2857
:1001F800033ED01D0029003E501D0329043ED01C9B
:100208000629083E501C09290C3ED0000800400869
:100218004102450503192229031C142903181B2927
:100228000714601F87144321871043210800071013
:10023800E01F871443218710432108000710871007
:1002480043214321080042084302450503193E297A
:10025800031C3029031837290715601E8715432109
:100268008711432108000711E01E871543218711D4
:100278004321080007118711432143210800300852
:0C028800B10030083102031945290800BC
:04400E00F120FF3F5F
:00000001FF
