:020000002B28AB
:10000800A000030EA1000B1C0B28E320F6200B19FF
:10001800C120031383120C1BC820031383128C1AEC
:10002800BC20210E8300A00E200E09008207303468
:100038003134323433343434353436343734383474
:100048003934413442344334443445344634031358
:1000580083160F308500031783160F3088000313AB
:100068008316FF308600031783168901031383164E
:100078008801031383160330810003138316FF30AE
:1000880095000313831697010313831281309F0091
:10009800031383169F010313831626309800031356
:1000A80083129030980003138316193099000313B4
:1000B80083169A010313831278308B000313831677
:1000C800FF3096000313831660308C0003138312ED
:1000D8008801031383128101031383129F140313EE
:1000E80083128B17FE213030B400F030B500B80110
:1000F800B901C001C801C901CA01CB01D001592108
:10010800D021AC30CC008621CC0B87286321D021AC
:10011800D030CC00AB21CC0B8E285808031DD00062
:10012800D8013808031DD0005008033C0319692181
:1001380050080A3C031986215008083C03199821E5
:100148005008053C0319AB2150080D3C0319BD218B
:100158005008093C0319D02191288B1303138312EB
:10016800990003138316981CB7288B17FE210800E3
:10017800031383121A08D8000800031383120030EF
:100188008100A80A0B110800340884001E088000AA
:10019800B40A3408343C0319D228D4283030B400C7
:1001A80034181F15341C1F11B4189F15B41C9F1147
:1001B800031383120C13031383129F140800061EE3
:1001C8004014061A4010861EC014861AC010061F56
:1001D8004015061B4011861FC015861BC0118B10C9
:1001E8000B100800B801B9010812881608178817FB
:1001F8000130B800252139181D290816881208175A
:1002080088170230B800252139181D2908168816C4
:10021800081388170430B800252139181D29081635
:100228008816081788130830B800252139181D29A1
:10023800B8013A2108128812081388138B100B1082
:100248000800061C2E29861C3129061D3429861D06
:1002580037290800381639140800B8163914080068
:10026800381739140800B817391408000301B81FE3
:100278003E29003E381F4129013EB81E4429023E4E
:10028800381E4729033EB81D4A29003E381D4D290E
:10029800043EB81C5029083E381C53290C3EB800AF
:1002A80008008621401C552908009821C01C59299E
:1002B800C801C9010800AB21401D5F290800BD2104
:1002C800C01D6329CA01CB01080030083102350579
:1002D8000319762903187229031C742986217729A2
:1002E80098217729A6213208330235050319842974
:1002F80003188029031C8229AB218529BD21852962
:10030800CB2108000810401C8814D0218810D02167
:10031800401897294808013EC800031C9629490837
:10032800013EC900D72108000814C01C8814D02138
:100338008810D021C018A52948080319C903C80383
:10034800D721080008108810D021D02108000811F2
:10035800401D8815D0218811D0214019BC294A0890
:10036800013ECA00031CBB294B08013ECB00D72124
:1003780008000815C01D8815D0218811D021C01982
:10038800CA294A080319CB03CA03D7210800081150
:100398008811D021D02108002808A900280829029E
:1003A8000319D22908000D30B1200A30B1204908BC
:1003B800F921B1204908F621B1204808F921B120D6
:1003C8004808F621B1202030B1204B08F921B1208E
:1003D8004B08F621B1204A08F921B1204A08F62134
:1003E800B12008000F391A200800A200220E0F3988
:0A03F8001A20080083120313080006
:04400E00F420FF3F5C
:00000001FF
