:100F0000822F0900F030A4000313831603308500FC
:100F100003138316003086000317831603308800FE
:100F200003138316003097000313831281309F0050
:100F30000313831600309F00031383121F119F14A5
:100F40009F18A02F1E08A000031383121F159F14C3
:100F50009F18A82F1E08A10020082439A0002108EE
:100F60002439A100200821020319BA2F031CBB2732
:100F70000318CA279C2F08308600F7270430860004
:100F8000F72702308600F72701308600F727003068
:100F90008600080008308600F72701308600F72712
:100FA00002308600F72704308600F72700308600DD
:100FB000080080308600F72740308600F727203071
:100FC0008600F72710308600F727003086000800DB
:100FD00080308600F72710308600F7272030860003
:100FE000F72740308600F7270030860008002F30B2
:100FF000A200FF30A300A30BFB2FA20BF92F0800C8
:04400E00F120FF3F5F
:00000001FF
