:020000001A28BC
:10000800A000030EA1000B1C0B28C520D8200B193B
:10001800A720031383120C1BAE20031383128C1A20
:10002800A320210E8300A00E200E090003138316BF
:100038000F308500031783160F30880003138316CB
:10004800FF3086000317831689010313831688017E
:10005800031383160430810003138316FF309500C1
:100068000313831697010313831281309F00031330
:1000780083169F01031383162630980003138312F7
:1000880090309800031383161930990003138316D0
:100098009A010313831278308B0003138316FF3001
:1000A80096000313831660308C00031383128801B3
:1000B800031383128101031383129F140313831202
:1000C8008B17831203133030B400F030B500B80139
:1000D800B901C001C801C901CA01CB01D00183120D
:1000E80003130A309B2048309B204F309B204C3014
:1000F8009B2041309B203808031DD0005008033C4A
:1001080003194F2150080A3C03196C215008083C78
:10011800031978215008053C03198A2150080D3C21
:10012800031996215008093C0319A82173280313C1
:100138008312990003138316981CA0280800031340
:1001480083128C1208000313831200308100A80A5E
:100158000B110800340884001E088000B40A340813
:10016800343C0319B828BA283030B40034181F15A5
:10017800341C1F11B4189F15B41C9F110C139F1425
:100188000800061E4014061A4010861EC014861A5F
:10019800C010061F4015061B4011861FC015861B80
:1001A800C0118B100B10080083120313B801B9019A
:1001B80008128816081788170130B800092139185D
:1001C800012908168812081788170230B800092173
:1001D8003918012908168816081388170430B8003A
:1001E80009213918012908168816081788130830B4
:1001F800B800092139180129B8011E2108128812EE
:10020800081388138B100B100800061C1229861C73
:100218001529061D1829861D1B29080038163914AA
:100228000800B81639140800381739140800B81728
:1002380039140800831203130301B81F2429003E50
:10024800381F2729013EB81E2A29023E381E2D29AB
:10025800033EB81D3029003E381D3329043EB81C22
:100268003629083E381C39290C3EB80008006C2194
:10027800401C3B29C801C90108007821C01C41293C
:1002880008008A21401D4529CA01CB010800962192
:10029800C01D4B29080030083102350503195C29B7
:1002A80003185829031C5A296C215D2978215D29D6
:1002B800852132083302350503196A29031866298E
:1002C800031C68298A216B2996216B29A321080020
:1002D8000810401C8814A8218810A82140187729E4
:1002E800C80A0318C90A08000814C01C8814A821E1
:1002F8008810A821C0188429C8080319C903C8038D
:10030800080008108810A821A82108000811401D1D
:100318008815A8218811A82140199529CA0A031807
:10032800CB0A08000815C01D8815A8218811A82126
:10033800C019A229CA080319CB03CA030800081167
:100348008811A821A82108002808A900280829023E
:060358000319AA290800A8
:04400E00F420FF3F5C
:00000001FF
