:020000001A28BC
:10000800A000030EA1000B1C0B28C420D7200B193D
:10001800A220031383120C1BA920031383128C1A2A
:100028009D20210E8300A00E200E090003138316C5
:100038000F308500031783160F30880003138316CB
:10004800FF3086000317831689010313831688017E
:10005800031383160430810003138316FF309500C1
:100068000313831697010313831241309F00031370
:1000780083169F01031383162630980003138312F7
:1000880090309800031383161930990003138316D0
:100098009A010313831278308B0003138316FF3001
:1000A80096000313831660308C00031383128801B3
:1000B800031383128101031383129F140313831202
:1000C8008B17831203133030B400F030B500B80139
:1000D800B901C001C801C901CA01CB01D00183120D
:1000E80003135808031DD000D8013808031DD00099
:1000F8005008033C03194E2150080A3C03196B2190
:100108005008083C03197A215008053C03198E2130
:1001180050080D3C03199D215008093C0319B121D1
:10012800732803138312990003138316981C9A28C3
:100138000800031383121A08D80008000313831257
:1001480000308100A80A0B110800340884001E083A
:100158008000B40A3408343C0319B328B528303079
:10016800B40034181F15341C1F11B4189F15B41C83
:100178009F11031383120C13031383129F14080097
:10018800061E4014061A4010861EC014861AC01097
:10019800061F4015061B4011861FC015861BC0117F
:1001A8008B100B10080083120313B801B901081251
:1001B8008816081788170130B8000821391800294F
:1001C80008168812081788170230B800082139184D
:1001D800002908168816081388170430B800082163
:1001E8003918002908168816081788130830B80027
:1001F800082139180029B8011D210812881208138E
:1002080088138B100B100800061C1129861C142952
:10021800061D1729861D1A290800381639140800E2
:10022800B81639140800381739140800B8173914E3
:100238000800831203130301B81F2329003E381F47
:100248002629013EB81E2929023E381E2C29033EC4
:10025800B81D2F29003E381D3229043EB81C352907
:10026800083E381C38290C3EB80008006B21401C99
:100278003A29C801C90108007A21C01C4029080090
:100288008E21401D4429CA01CB0108009D21C01DB3
:100298004A29080030083102350503195B2903187B
:1002A8005729031C59296B215C297A215C2989214A
:1002B8003208330235050319692903186529031C17
:1002C80067298E216A299D216A29AC210800081016
:1002D800401C8814B1218810B12140187929480898
:1002E800013E031C79294908013E08000814C01C76
:1002F8008814B1218810B121C01888294808013C08
:10030800031C88294908013C080008108810B121FD
:10031800B12108000811401D8815B1218811B121AB
:1003280040199C294A08013E031C9C294B08013EA0
:1003380008000815C01D8815B1218811B121C01900
:10034800AB294808013C031CAB294908013C0800BB
:1003580008118811B121B12108002808A90028082E
:0803680029020319B329080062
:04400E00F420FF3F5C
:00000001FF
