:020000001628C0
:10000800A000030EA100031383120B19662003132B
:1000180083120C1B6D200B188420210E8300A00E68
:10002800200E0900031383160F308500031783166B
:100038000F30880003138316FF30860003178316DA
:1000480000308908031383160030870003138316D2
:1000580000308800031383160430810003138316CD
:10006800FF30950003138312F8308B0003138316B7
:10007800FF3096000313831640308C000313831659
:10008800003097000313831281309F0003138316F7
:1000980000309F0003138312003081000313831282
:1000A8009F14031383120030870003138312003058
:1000B80088004030C400F030C50083120313E320E9
:1000C800FD2061280313831200308100B00A0B1150
:1000D8000800440884001E088000C40A4408443C00
:1000E8000319772879284030C40044181F15441C88
:1000F8001F11C4189F15C41C9F110C139F140800CE
:1001080083120313D001A101081288160817881753
:100118000130D000B1202118AD2808168812081720
:1001280088170230D000B1202118AD28081688168B
:10013800081388170430D000B1202118AD280816FC
:100148008816081788130830D000B1202118AD2868
:10015800D00188018B100B100800061CBA28861CD9
:10016800BD28061DC028861DC32808005016211466
:100178000800D01621140800501721140800D017C1
:1001880021140800831203130301D01FCC28003E5A
:10019800501FCF28013ED01ED228023E501ED5281F
:1001A800033ED01DD828003E501DDB28043ED01C3D
:1001B800DE28083E501CE1280C3ED000080040080C
:1001C800410245050319F828031CEC280318F228F6
:1001D80007148714172187101721080007108714A0
:1001E80017218710172108000710871017211721DA
:1001F800080042084302450503191229031C062971
:1002080003180C29071587151721871117210800CE
:100218000711871517218711172108000711871162
:100228001721172108003008B100300831020319DE
:040238001929080078
:04400E00F120FF3F5F
:00000001FF
