:020000001828BE
:10000800A000030EA100031383120B18872003130B
:1000180083120B196920031383120C1B7020210E05
:100028008300A00E200E0900031383160F308500ED
:10003800031783160F30880003138316FF308600DA
:100048000317831689010313831687010313831685
:100058008801031383160430810003138316FF30CD
:10006800950003138312F8308B0003138316FF30B7
:1000780096000313831640308C0003138316003058
:1000880097000313831281309F00031383160030F7
:100098009F00031383128101031383129F14031318
:1000A800831287010313831288014030C400F8309B
:1000B800C500D001D101E00109210D21112115212F
:1000C8008312031319213521642803138312003086
:1000D8008100B00A0B110800440884001E08800043
:1000E800C40A4408443C03197A287C284030C400D8
:1000F80044181F15441C1F11C4189F15C41C9F11B8
:100108000C139F140800061E6016061A6012861E3D
:10011800E016861AE012061F6017061B6013861F7A
:10012800E017861BE013601A0716601E0712E01A14
:100138008716E01E8712601B0717601F0713E01B56
:100148008717E01F87138B100B1008008312031307
:10015800D001D10108128816081788170130D0007D
:10016800D7205118D3280816881208178817023084
:10017800D000D7205118D3280816881608138817D6
:100188000430D000D7205118D3280816881608172D
:1001980088130830D000D7205118D328D0018801FF
:1001A8008B100B100800061CE028861CE328061D8F
:1001B800E628861DE9280800501651140800D016B4
:1001C80051140800501751140800D0175114080092
:1001D800831203130301D01FF228003E501FF52895
:1001E800013ED01EF828023E501EFB28033ED01DBB
:1001F800FE28003E501D0129043ED01C0429083E5B
:10020800501C07290C3ED00008002221601E092935
:1002180008002921E01E0D2908003E21601F112930
:1002280008004521E01F152908004008410245053E
:100238000319302903182229031C29290710601ED5
:10024800871451218710512108000714E01E8714D4
:100258005121871051210800071087105121512181
:10026800080042084302450503194C2903183E2992
:10027800031C45290711601F87155121871151213A
:1002880008000715E01F8715512187115121080023
:10029800071187115121512108003008B100300899
:0802A80031020319532908007B
:04400E00F420FF3F5C
:00000001FF
