:100F7600BD2F090003138316003086000313831266
:100F8600C527C32F08308600F7270C308600F727C1
:100F960004308600F72706308600F72702308600E1
:100FA600F72703308600F72701308600F727093038
:100FB6008600F727080008308600F72709308600E4
:100FC600F72701308600F72703308600F72702301F
:100FD6008600F72706308600F72704308600F727B5
:100FE6000C308600F72708000530A000FF30A1006E
:0A0FF600A10BFB2FA00BF92F080040
:04400E00F120FF3F5F
:00000001FF
