:020000002B28AB
:10000800A000030EA1000B1C0B28ED2000210B19EA
:10001800CB20031383120C1BD220031383128C1AD8
:10002800C620210E8300A00E200E0900820730345E
:100038003134323433343434353436343734383474
:100048003934413442344334443445344634031358
:1000580083160F308500031783160F3088000313AB
:100068008316FF308600031783168901031383164E
:100078008801031383160330810003138316FF30AE
:1000880095000313831697010313831281309F0091
:10009800031383169F010313831626309800031356
:1000A80083129030980003138316193099000313B4
:1000B80083169A010313831278308B000313831677
:1000C800FF3096000313831660308C0003138312ED
:1000D8008801031383128101031383129F140313EE
:1000E80083128B1708223030B400F030B500B80105
:1000F800B901C001C801C901CA01CB01D0010F3043
:10010800CC009021CC0B85280F30CC00A221CC0B41
:100118008A286321DA21AC30CC009021CC0B9128BD
:100128006D21DA21D030CC00B521CC0B98285808A5
:10013800031DD000D8013808031DD0005008033C27
:100148000319732150080A3C031990215008083CF0
:100158000319A2215008053C0319B52150080D3C8C
:100168000319C7215008093C0319DA219B288B136E
:1001780003138312990003138316981CC1288B1745
:1001880008220800031383121A08D8000800031372
:10019800831200308100A80A0B110800340884007B
:1001A8001E088000B40A3408343C0319DC28DE2811
:1001B8003030B40034181F15341C1F11B4189F15A3
:1001C800B41C9F11031383120C13031383129F147F
:1001D8000800061E4014061A4010861EC014861A0F
:1001E800C010061F4015061B4011861FC015861B30
:1001F800C0118B100B100800B801B901081288163D
:10020800081788170130B8002F2139182729081630
:100218008812081788170230B8002F2139182729A3
:1002280008168816081388170430B8002F213918C3
:10023800272908168816081788130830B8002F21B0
:1002480039182729B801442108128812081388137D
:100258008B100B100800061C3829861C3B29061D2C
:100268003E29861D41290800381639140800B81699
:1002780039140800381739140800B8173914080059
:100288000301B81F4829003E381F4B29013EB81EFC
:100298004E29023E381E5129033EB81D5429003EFE
:1002A800381D5729043EB81C5A29083E381C5D29B8
:1002B8000C3EB80008009021401C5F290800A221CC
:1002C800C01C6329C801C9010800B521401D69295E
:1002D8000800C721C01D6D29CA01CB0108003008DC
:1002E800310235050319802903187C29031C7E294E
:1002F80090218129A2218129B021320833023505B4
:1003080003198E2903188A29031C8C29B5218F29E2
:10031800C7218F29D52108000810401C8814DA212C
:100328008810DA214018A1294808013EC800031C9A
:10033800A0294908013EC900E12108000814C01C91
:100348008814DA218810DA21C018AF29480803195F
:10035800C903C803E121080008108810DA21DA214E
:1003680008000811401D8815DA218811DA21401982
:10037800C6294A08013ECA00031CC5294B08013E8C
:10038800CB00E12108000815C01D8815DA21881165
:10039800DA21C019D4294A080319CB03CA03E12179
:1003A800080008118811DA21DA2108002808A900B4
:1003B800280829020319DC2908000D30BB200A305F
:1003C800BB2049080322BB2049080022BB2048085B
:1003D8000322BB2048080022BB202030BB204B084A
:1003E8000322BB204B080022BB204A080322BB2063
:1003F8004A080022BB2008000F391A200800A20072
:0E040800220E0F391A20080083120313080079
:04400E00F420FF3F5C
:00000001FF
