:020000001A28BC
:10000800A000030EA1000B1C0B28D020E3200B1925
:10001800AE20031383120C1BB520031383128C1A12
:10002800A920210E8300A00E200E090003138316B9
:100038000F308500031783160F30880003138316CB
:10004800FF3086000317831689010313831688017E
:10005800031383160330810003138316FF309500C2
:100068000313831697010313831281309F00031330
:1000780083169F01031383162630980003138312F7
:1000880090309800031383161930990003138316D0
:100098009A010313831278308B0003138316FF3001
:1000A80096000313831660308C00031383128801B3
:1000B800031383128101031383129F140313831202
:1000C8008B17F2213030B400F030B500B801B90117
:1000D800C001C801C901CA01CB01D0014621C5210F
:1000E800AC30CC007321CC0B76285021C521D03000
:1000F800CC009C21CC0B7D285808031DD000D801CA
:100108003808031DD0005008033C03195621500835
:100118000A3C031973215008083C0319852150082B
:10012800053C03199C2150080D3C0319AE215008C9
:10013800093C0319C521802803138312990003136E
:1001480083169818A528F2210800031383121A08A9
:10015800D80008000313831200308100A80A0B118D
:100168000800340884001E088000B40A3408343CAF
:100178000319BF28C1283030B40034181F15341CA7
:100188001F11B4189F15B41C9F11031383120C136D
:10019800031383129F140800061E4014061A401009
:1001A800861EC014861AC010061F4015061B401173
:1001B800861FC015861BC0118B100B100800B801D4
:1001C800B90108128816081788170130B8001221DB
:1001D80039180A2908168812081788170230B80033
:1001E800122139180A2908168816081388170430A6
:1001F800B800122139180A29081688160817881312
:100208000830B800122139180A29B8012721081224
:100218008812081388138B100B100800061C1B2962
:10022800861C1E29061D2129861D2429080038162A
:1002380039140800B816391408003817391408009A
:10024800B817391408000301B81F2B29003E381FBE
:100258002E29013EB81E3129023E381E3429033E9C
:10026800B81D3729003E381D3A29043EB81C3D29DF
:10027800083E381C40290C3EB80008007321401C79
:10028800422908008521C01C4629C801C901080067
:100298009C21401D4C290800AE21C01D5029CA01CF
:1002A800CB0108003008310235050319632903180A
:1002B8005F29031C612973216429852164299721F9
:1002C8003208330235050319712903186D29031CF7
:1002D8006F299C217229AE217229C02108000810BB
:1002E800401C8814C5218810C52140188429480855
:1002F800013EC800031C83294908013EC900CC21DE
:1003080008000814C01C8814C5218810C521C0180D
:1003180096294808013CC800031C95294908013E54
:10032800C900CC21080008108810C521C521080083
:100338000811401D8815C5218811C5214019AD290E
:100348004A08013ECA00031CAC294B08013ECB00F9
:10035800CC2108000815C01D8815C5218811C521A4
:10036800C019BF294A08013CCA00031CBE294B0812
:10037800013ECB00CC21080008118811C521C521F8
:1003880008002808A900280829020319C729080015
:100398000D30A0200A30A0204908A0204808A0203D
:1003A8004B08A0204A08A0200800820730343134C6
:1003B80032343334343435343634373438343934E9
:1003C8004134423443344434453446340F39D92116
:1003D8000800A200220E0F39D92108008312031346
:0203E80008000B
:04400E00F420FF3F5C
:00000001FF
